S01200004D5055363035304C69622E737265633E
S1130000A6C0C0C0BFC0BEC0BDC0BCC0BBC0BAC01B
S1130010B9C0B8C0B7C021C1B5C056C1B3C0B2C021
S1130020B1C0B0C0AFC0084AD73B3BCE016E84BC60
S1130030BFFDC12F3D6C74319ABD56833DDA3D003E
S1130040C77F11BED9E4BB4C3E916BAAAABE000087
S113005000803F0000407A10F35A00A0724E180945
S11300600010A5D4E80000E87648170000E40B541B
S1130070020000CA9A3B000000E1F50500008096EA
S11300809800000040420F000000A086010000001C
S1130090102700000000E8030000000064000000D6
S11300A000000A00000000000100000000002C769F
S11300B0D888DC674F0823DFC1DFAE59E1B1B796BA
S11300C0E5E3E453C63AE651997696E8E6C2842617
S11300D0EB898C9B62ED407C6FFCEFBC9C9F40F2F3
S11300E0BAA56FA5F490055A2AF75C936B6CF9676F
S11300F06DC11BFCE0E40D47FEF520E6B500D0ED34
S1130100902E0300943577050080841E080000209B
S11301104E0A000000C80C333333330F986E128339
S11301201141EF8D2114893BE65516CFFEE6DB180D
S1130130D1844B381BF77C1D901DA4BBE4242032D2
S113014084725E228100C9F124ECA1E53D271124CB
S11301501FBECFE5D4E0DEBFCDBF10E0A0E6B0E027
S1130160E6EDF8E102C005900D92AC38B107D9F77D
S113017021E0ACE8B0E001C01D92AC36B207E1F773
S1130180EBD1A7CB3DCF0F931F93CF93DF93EC011C
S1130190688179818A819B810C811D812E813F81B7
S11301A0000F111F221F331F000F111F221F331FA7
S11301B0A9019801220F331F441F551F220F331F1B
S11301C0441F551FF3D5BA01A901415051096109D2
S11301D07109DB01CA0188279F70AA27BB27892FD1
S11301E09A2FAB2FBB2780BD49B920B5688580E421
S11301F0689FB0011124998580E1989FA001112482
S11302009A85892F90E0880F991F880F991F880F6E
S1130210991F9C856068462B842B892B822B8660D2
S113022080BD8AB1886D8AB9DF91CF911F910F91FA
S11302300895909160009923E1F3109260008CB9C5
S11302400895CF93C82F8A3011F48DE0FADF8C2FF4
S1130250F0DF80E090E0CF9108951F920F920FB6E7
S11302600F9211248F939F93EF93FF93E0918C004F
S1130270F0918D008CB1E057FF4F808380918E0008
S113028090918F00019690938F0080938E008091BF
S11302908C0090918D00019690938D0080938C003A
S11302A080918C0090918D008038910520F01092FF
S11302B08D0010928C00FF91EF919F918F910F9080
S11302C00FBE0F901F9018951F920F920FB60F92AA
S11302D011248F9381E0809360008F910F900FBE63
S11302E00F901F90189511B88FEF80B9089594EA74
S11302F096BF06B607FEFDCF91B1987F903171F499
S113030083B984E886BF06B607FEFDCF81B1887F36
S1130310803431F0803231F482E0089580E0089531
S113032081E0089583E0089584E986BF06B604FC5D
S1130330FDCF0895CF93C82F84EA86BF06B607FE83
S1130340FDCF81B1887F8830B9F7C3B984E886BF0F
S113035006B607FEFDCF81B1887F883111F0E4DF56
S1130360EBCFCF91089583B984E886BF06B607FE24
S1130370FDCF81B1887F883221F0803321F481E080
S1130380089580E0089582E0089584EC86BF06B65F
S113039007FEFDCF83B1089584E886BF06B607FE45
S11303A0FDCF83B10895CF93DF936AD2EEDFC82FD8
S11303B0D0E0DC2FCC27E9DFBE01682B072E000C30
S11303C0880B990BC4D360933A0170933B018093DB
S11303D03C0190933D01D9DFC82FD0E0DC2FCC271E
S11303E0D4DFBE01682B072E000C880B990BAFD30A
S11303F060932E0170932F0180933001909331010B
S1130400C4DFC82FD0E0DC2FCC27BFDFBE01682BB0
S1130410072E000C880B990B9AD3609310017093EC
S113042011018093120190931301AFDFC82FD0E024
S1130430DC2FCC27AADFBE01682B072E000C880B0B
S1130440990B85D360932A0170932B0180932C011F
S113045090932D019ADFC82FD0E0DC2FCC2795DFB5
S1130460BE01682B072E000C880B990B70D3609388
S1130470260170932701809328019093290185DF39
S1130480C82FD0E0DC2FCC2780DFBE01682B072EDD
S1130490000C880B990B5BD360936201709363012A
S11304A0809364019093650170DFC82FD0E0DC2F46
S11304B0CC2772DFBE01682B072E000C880B990B2A
S11304C046D360933601709337018093380190933B
S11304D039012ADFDF91CF9108954F925F926F9295
S11304E07F92AF92BF92CF92DF92EF92FF920F93DF
S11304F01F93CF93DF93CDB7DEB729013A019B0158
S1130500AC01241935094609570989899A89AB89A7
S1130510BC89BC01CD016A197B098C099D0937D4BA
S1130520A8019701241935094609570961D4C60160
S1130530B501620F731F841F951FDF91CF911F9127
S11305400F91FF90EF90DF90CF90BF90AF907F908E
S11305506F905F904F900895CF93DF93CDB7DEB740
S1130560A7970FB6F894DEBF0FBECDBF80E492E428
S1130570AFE0B0E089839A83AB83BC8380E699E0E3
S1130580A0E0B0E08D839E83AF83B88783E08C873F
S11305901D8619861A8681E08B87CE010196F3DDCC
S11305A0FE013E968EE0DF011D928A95E9F782E016
S11305B0898B81E291E09F8B8E8BF0936901E093AC
S11305C0680191DE33D1789485E690E09F938F9310
S11305D060D40F900F90E7DE8091610090916200EB
S11305E09C01990F440B550B2C8F3D8F4E8F5F8FC1
S11305F04090630050906400052C000C6608770856
S113060060913A0170913B0180913C0190913D01D0
S11306106BD21F921F921F920F2EFAE59F2EF02D80
S11306209F920F2EF6EAAF2EBB24BA94CB2CDB2C70
S1130630F02DEC8CFD8C0E8D1F8DA30192014DDFEE
S11306400F900F900F900F9068A379A38AA39BA398
S113065060912E0170912F018091300190913101B0
S113066043D21F921F921F929F92EC8CFD8C0E8D91
S11306701F8DA301920131DF0F900F900F900F9007
S11306806CA37DA38EA39FA36091100170911101AF
S1130690809112019091130127D21F921F921F92F1
S11306A09F92EC8CFD8C0E8D1F8DA301920115DFA2
S11306B00F900F900F900F90719561957109072E0F
S11306C0000C880B990B43D22B013C016CA17DA13A
S11306D0719561957109072E000C880B990B37D21F
S11306E04B015C01A301920146D12BED3FE049E4AB
S11306F050E4CED021EE3EE245E652E4E0D26B0176
S11307007C016093220170932301809324019093D0
S1130710250168A179A1719561957109072E000CD5
S1130720880B990B14D26C8F7D8F8E8F9F8FA301B2
S1130730920121D12BED3FE049E450E4A9D021EE10
S11307403EE245E652E4BBD260935A0170935B01EA
S113075080935C0190935D012C8D3D8D4E8D5F8D5A
S1130760C501B40108D12BED3FE049E450E490D039
S113077021EE3EE245E652E4A2D260933201709348
S11307803301809334019093350108E111E022E0B4
S113079043E0C701B6015ED36801DF920F938BE695
S11307A090E09F938F930F2EFEE3EF2EF1E0FF2E48
S11307B0F02DFF92EF9286D3FF92EF926AD360916D
S11307C05A0170915B0180915C0190915D0122E07E
S11307D043E040D3DF920F9386E790E09F938F939B
S11307E0FF92EF926FD3FF92EF9253D36091320155
S11307F070913301809134019091350122E043E0FE
S113080029D3DF920F9380E890E09F938F93FF9218
S1130810EF9258D3FF92EF923CD38AE090E04CD30E
S11308200FB6F894DEBF0FBECDBFD5CE8BE792E9ED
S11308300197F1F700C0000080ED7CDD89E193DDD4
S113084087E091DD71DD80ED75DD8BE68CDD81E087
S11308508ADD6ADD80ED6EDD8AE185DD80E083DDA1
S113086063DD80ED67DD8BE17EDD88E17CDD5CDDD1
S113087080ED60DD88E377DD81E075DD55DD089589
S113088080ED58DD8BE36FDD81ED31DD0895505847
S1130890BB27AA270ED0D2C1C3D130F0C8D120F0D3
S11308A031F49F3F11F41EF493C10EF4E095E7FB7D
S11308B089C1E92FD4D180F3BA176207730784077B
S11308C0950718F071F49EF5ECC10EF4E0950B2E2B
S11308D0BA2FA02D0B01B90190010C01CA01A0018E
S11308E01124FF27591B99F0593F50F4503E68F1E9
S11308F01A16F040A22F232F342F4427585FF3CF2A
S1130900469537952795A795F0405395C9F77EF4FA
S11309101F16BA0B620B730B840BBAF09150A1F043
S1130920FF0FBB1F661F771F881FC2F70EC0BA0FC9
S1130930621F731F841F48F4879577956795B79551
S1130940F7959E3F08F0B3CF9395880F08F0992749
S1130950EE0F97958795089563D158F080E891E05C
S113096009F49EEF64D128F040E851E059F45EEFB9
S113097009C02EC196C1E92FE07871D168F3092E20
S1130980052AC1F3261737074807590738F00E2EF2
S113099007F8E02569F0E025E0640AC0EF6307F892
S11309A0009407FADB01B9019D01DC01CA01AD0124
S11309B0EF9341D043D10AD05F91552331F02BED11
S11309C03FE049E450FD49EC63CF0895DF93DD2710
S11309D0B92FBF7740E85FE31616170648075B0791
S11309E010F4D92F65D19F938F937F936F93CAD1BE
S11309F0E6E2F0E0F0D022D12F913F914F915F9148
S1130A006AD1DD2349F09058A2EA2AED3FE049EC8F
S1130A105FE3D0785D274DDFDF9110C108D140F04E
S1130A20FFD030F021F45F3F19F0CCC051113AC12E
S1130A30CFC015D198F39923C9F35523B1F3951B6E
S1130A40550BBB27AA2762177307840738F09F5FEB
S1130A505F4F220F331F441FAA1FA9F333D00E2E5A
S1130A603AF0E0E830D091505040E695001CCAF7C7
S1130A7029D0FE2F27D0660F771F881FBB1F26178C
S1130A8037074807AB07B0E809F0BB0B802DBF015F
S1130A90FF2793585F4F2AF09E3F510568F092C09C
S1130AA001C15F3FECF3983EDCF38695779567953B
S1130AB0B795F7959F5FC9F7880F911D9695879510
S1130AC097F90895E1E0660F771F881FBB1F62172F
S1130AD073078407BA0720F0621B730B840BBA0BED
S1130AE0EE1F88F7E095089504D06894B111DAC038
S1130AF00895BDD088F09F5790F0B92F9927B7512A
S1130B00A0F0D1F0660F771F881F991F1AF0BA95CD
S1130B10C9F712C0B13081F0C4D0B1E00895C1C0AA
S1130B20672F782F8827B85F39F0B93FCCF38695C3
S1130B3077956795B395D9F73EF490958095709520
S1130B4061957F4F8F4F9F4F0895E89409C097FB9D
S1130B503EF490958095709561957F4F8F4F9F4F90
S1130B609923A9F0F92F96E9BB279395F6958795D4
S1130B7077956795B795F111F8CFFAF4BB0F11F497
S1130B8060FF1BC06F5F7F4F8F4F9F4F16C088233E
S1130B9011F096E911C0772321F09EE8872F762F74
S1130BA005C0662371F096E8862F70E060E02AF0B5
S1130BB09A95660F771F881FDAF7880F96958795A1
S1130BC097F9089597F99F6780E870E060E00895C9
S1130BD09FEF80EC0895DF93CF931F930F93FF92C1
S1130BE0EF92DF927B018C01689405C0DA2EEF014D
S1130BF072D0FE01E894A5912591359145915591C6
S1130C00AEF3EF0156DEFE019701A801DA9479F7FD
S1130C10DF90EF90FF900F911F91CF91DF91089596
S1130C2000240A94161617061806090608950024C7
S1130C300A9412161306140605060895092E039441
S1130C40000C11F4882352F0BB0F40F4BF2B11F4B5
S1130C5060FF04C06F5F7F4F8F4F9F4F089557FD14
S1130C609058440F551F59F05F3F71F04795880F16
S1130C7097FB991F61F09F3F79F0879508951216AD
S1130C8013061406551FF2CF4695F1DF08C0161659
S1130C9017061806991FF1CF86957105610508940A
S1130CA00895E894BB2766277727CB0197F9089521
S1130CB09B01AC0160E070E080E89FE366C00BD06C
S1130CC0BDCFAEDF28F0B3DF18F0952309F07ACF5B
S1130CD07FCF1124E7CFC3DFA0F3959FD1F3950F06
S1130CE050E0551F629FF001729FBB27F00DB11DAC
S1130CF0639FAA27F00DB11DAA1F649F6627B00D3C
S1130D00A11D661F829F2227B00DA11D621F739F24
S1130D10B00DA11D621F839FA00D611D221F749F32
S1130D203327A00D611D231F849F600D211D822F79
S1130D30762F6A2F11249F5750408AF0E1F08823C0
S1130D404AF0EE0FFF1FBB1F661F771F881F9150CD
S1130D505040A9F79E3F510570F034CFA3CF5F3FB9
S1130D60ECF3983EDCF3869577956795B795F79500
S1130D70E7959F5FC1F7FE2B880F911D9695879588
S1130D8097F908959B01AC019ACF53DE57CFDB014D
S1130D908F939F9349D0BF91AF91A29F800D911DD6
S1130DA0A39F900DB29F900D11240895A1E21A2ED5
S1130DB0AA1BBB1BFD010DC0AA1FBB1FEE1FFF1FFB
S1130DC0A217B307E407F50720F0A21BB30BE40B4B
S1130DD0F50B661F771F881F991F1A9469F7609592
S1130DE07095809590959B01AC01BD01CF0108954C
S1130DF0052E97FB16F400940FD057FD05D0D6DFCF
S1130E0007FC02D046F408C05095409530952195D2
S1130E103F4F4F4F5F4F0895909580957095619522
S1130E207F4F8F4F9F4F089509D0A59F900DB49F7A
S1130E30900DA49F800D911D11240895A29FB001CF
S1130E40B39FC001A39F01D0B29F700D811D1124D7
S1130E50911D0895EF920F931F93CF93DF93E801B1
S1130E6047FD02C034E001C034E1042E000C550BF0
S1130E7057FF03C0519541955109E32E022F242FAA
S1130E80AE0111D2CE01DF91CF911F910F91EF905E
S1130E900895A0E0B0E0EEE4F7E0F4C4AE014B5FE7
S1130EA05F4FFA0161917191AF0180916801909156
S1130EB0690127D0E2E002C560916801709169017F
S1130EC037D40895AEE0B0E0E7E6F7E0D9C40D8981
S1130ED01E8986E08C831A8309838FEF9FE79E83A4
S1130EE08D83AE01475E5F4F6F89788DCE01019689
S1130EF008D0EF81F885E00FF11F10822E96E4E010
S1130F00DBC4ABE0B0E0E6E8F7E0ACC46C017B0125
S1130F108A01FC0117821682838181FFBFC1CE0141
S1130F2001963C01F6019381F70193FD859193FFAE
S1130F3081917F01882309F4ADC1853239F493FD91
S1130F40859193FF81917F01853221F4B60190E070
S1130F50EFD3E8CF912C212C312CFFE1F315D8F0FD
S1130F608B3279F038F4803279F08332A1F4232D76
S1130F7020611DC08D3261F0803369F4232D21601E
S1130F8016C0832D8260382EE32DE4603E2E2AC0E5
S1130F90F32DF8601DC037FC2DC020ED280F2A303A
S1130FA040F08E32B9F436FC75C1232D2064322E04
S1130FB019C036FE06C08AE0989E200D1124922E98
S1130FC011C0EAE02E9E200D1124222EF32DF06292
S1130FD03F2E08C08C3621F4832D8068382E02C041
S1130FE0883641F4F70193FD859193FF81917F0148
S1130FF08111B3CF982F9F7D9554933028F40C5FC3
S11310001F4F9FE399830DC0833631F0833771F00E
S1131010833509F055C020C0F801808189830E5FB3
S11310201F4F88248394912C530112C02801F2E0AD
S11310304F0E511CF801A080B18036FE03C0692D0B
S113104070E002C06FEF7FEFC50167D34C018201EE
S1131050F32DFF773F2E15C0280122E0420E511CCC
S1131060F801A080B18036FE03C0692D70E002C093
S11310706FEF7FEFC50146D34C01F32DF0683F2E8F
S1131080820133FC19C0822D90E088169906A0F4E1
S1131090B60180E290E04CD32A94F5CFF50137FCF9
S11310A0859137FE81915F01B60190E041D3211013
S11310B02A9421E0821A91088114910479F7E1C0FD
S11310C0843611F0893639F5F80137FE07C060819E
S11310D07181828193810C5F1F4F08C0608171818F
S11310E0072E000C880B990B0E5F1F4FF32DFF7614
S11310F03F2E97FF09C090958095709561957F4F1D
S11311008F4F9F4FF0683F2E2AE030E0A3014CD36D
S1131110882E861844C0853731F4232D2F7EB22EB5
S11311202AE030E025C0932D997FB92E8F36C1F087
S113113018F4883579F0AEC0803719F0883721F07B
S1131140A9C0E92FE061BE2EB4FE0DC0FB2DF460F2
S1131150BF2E09C034FE0AC0292F2660B22E06C055
S113116028E030E005C020E130E002C020E132E0B8
S1131170F801B7FE07C060817181828193810C5FA1
S11311801F4F06C06081718180E090E00E5F1F4FA9
S1131190A3010AD3882E8618FB2DFF773F2E36FE37
S11311A00DC0232D2E7FA22E891458F434FE0BC0BB
S11311B032FC09C0832D8E7EA82E05C0B82CA32C2A
S11311C003C0B82C01C0B92CA4FE0FC0FE01E80D69
S11311D0F11D8081803321F49A2D997EA92E09C0B6
S11311E0A2FE06C0B394B39404C08A2D867809F095
S11311F0B394A3FC10C0A0FE06C0B21480F4280C63
S1131200922C9B180DC0B21458F4B60180E290E001
S11312108FD2B394F8CFB21418F42B1802C0982CC0
S1131220212CA4FE0FC0B60180E390E081D2A2FE7F
S113123016C0A1FC03C088E790E002C088E590E0F6
S1131240B6010CC08A2D867851F0A1FE02C08BE253
S113125001C080E2A7FC8DE2B60190E069D2891456
S113126030F4B60180E390E063D29A94F8CF8A9484
S1131270F301E80DF11D8081B60190E059D281108F
S1131280F6CF222009F44ECEB60180E290E050D28F
S11312902A94F7CFF6018681978102C08FEF9FEFE2
S11312A02B96E2E1FBC2A9E0B0E0E8E5F9E0E0C298
S11312B06A01122FB02E2BE3201720F0FF24F394A1
S11312C0F00E02C02CE3F22E0F2D27E0AE014F5F8B
S11312D05F4F40D1BC014981842F8970813031F046
S11312E0E1FC06C0E0FE06C090E205C09DE203C03A
S11312F09BE201C090E05E2D507143FF3CC0911110
S113130002C083E001C084E0811718F4212F281B58
S113131001C020E051110BC0F601822F30E2882376
S113132019F031938150FBCFC20ED11C20E09923D8
S113133029F0D6019C93F60131966F01C6010396FC
S1131340E2FE0AC03EE4D6013C9341E411964C937C
S1131350119712963C9306C03EE6F601308341E6AF
S113136041833283FC01322F40E2332309F442C02B
S113137041933150FACF42FF44C0911102C083E03F
S113138001C084E0811718F4212F281B01C020E03C
S113139051110BC0F601822F30E2882319F03193EA
S11313A08150FBCFC20ED11C20E0992329F0D60135
S11313B09C93F60131966F01C6010396E2FE0BC0C1
S11313C039E4D6013C933EE411963C93119736E4FC
S11313D012963C9307C039E6F60130833EE631832A
S11313E036E63283FC01322F40E2332319F0419375
S11313F03150FBCFFC01E20FF11D10828EEF9FEF05
S1131400A6C021E030E0911102C020E030E01616C1
S113141017061CF4FB01319602C0E1E0F0E02E0F48
S11314203F1FBB2021F0EB2DF0E0319602C0E0E03D
S1131430F0E02E0F3F1FE12FF0E02E173F071CF4C2
S1131440121B212F01C020E08E2D887159F4F60162
S1131450822F30E2882319F031938150FBCFC20EE2
S1131460D11C20E0992329F0D6019C93F6013196F2
S11314706F0151110BC0F601822F90E3882319F0FC
S113148091938150FBCFC20ED11C20E00F2D060F8B
S11314909A81342F307144FF03C0913309F4015011
S11314A0101624F4093018F008E001C001E0AB0183
S11314B077FF02C040E050E0FB01E41BF50BA1E024
S11314C0B0E0AC0FBD1FEA0FFB1F8EE2A82E4B014C
S11314D0801A91080B2D10E01195019511094F3FC9
S11314E0BFEF5B0721F4D601AC9211966D0164172E
S11314F075072CF08416950614F4818101C080E3ED
S1131500415051093196D60111967D01401751077A
S113151024F0D6018C936701E2CF6417750739F480
S1131520963320F4953319F4311101C081E3F601A7
S11315308083F701822F90E2882319F091938150E0
S1131540FBCFF701E20FF11D108280E090E02996B5
S1131550ECE0AAC1283008F027E03327DA01990F1C
S1131560311D87FD916000966105710539F4326083
S11315702E5F3D9330E32A95E1F708959F3F30F0C5
S113158080387105610509F03C5F3C5F3D93913003
S113159008F08068911DDF93CF931F930F93FF9200
S11315A0EF92192F987F9695E92F96959695E90FC6
S11315B0FF27E255FF4F99273327EE24FF24A70185
S11315C0E70105900894079428F4360FE71EF81EE7
S11315D0491F511D660F771F881F991F0694A1F795
S11315E00590079428F4E70EF81E491F561FC11DE5
S11315F0770F881F991F661F0694A1F7059007941B
S113160028F4F80E491F561FC71FD11D880F991FB4
S1131610661F771F0694A1F70590079420F4490FDD
S1131620561FC71FD81F990F661F771F881F069460
S1131630A9F784911095177041F0D695C7955795E1
S11316404795F794E7941A95C1F7E4E5F0E06894B8
S11316501590159135916591959105907FE273955B
S1131660E118F10A430B560BC90BD009C0F7E10C82
S1131670F11E431F561FC91FD01D7EF4703311F491
S11316808A95E6CFE894015030F0080F0AF4002759
S1131690021708F4202F2395022F7A3328F079E3D8
S11316A07D932A95E9F710C07D932A9589F60694CF
S11316B097956795379517951794E118F10A430B99
S11316C0560BC90BD00998F023957E9173957A3304
S11316D008F070E37C932013B8F77E9170617D93DA
S11316E030F0839571E37D9370E32A95E1F711243B
S11316F0EF90FF900F911F91CF91DF91992787FD74
S113170090950895FC010590615070400110D8F740
S1131710809590958E0F9F1F0895FC016150704035
S113172001900110D8F7809590958E0F9F1F089512
S11317300F931F93CF93DF93FB01238121FD03C0FC
S11317408FEF9FEF2CC022FF16C046815781248162
S113175035814217530744F4A081B1819D012F5F65
S11317603F4F318320838C93268137812F5F3F4FF6
S11317703783268314C08B01EC01FB010084F185BF
S1131780E02D0995892BE1F6D80116968D919C914F
S11317901797019617969C938E931697CE01DF9117
S11317A0CF911F910F910895FA01AA27283051F182
S11317B0203181F1E8946F936E7F6E5F7F4F8F4F7E
S11317C09F4FAF4FB1E03ED0B4E03CD0670F781FDD
S11317D0891F9A1FA11D680F791F8A1F911DA11DC2
S11317E06A0F711D811D911DA11D20D009F46894FB
S11317F03F912AE0269F11243019305D3193DEF6A3
S1131800CF010895462F4770405D4193B3E00FD058
S1131810C9F7F6CF462F4F70405D4A3318F0495D43
S113182031FD4052419302D0A9F7EACFB4E0A69526
S11318309795879577956795BA95C9F70097610548
S1131840710508959B01AC010A2E0694579547959E
S113185037952795BA95C9F7620F731F841F951F93
S1131860A01D08952F923F924F925F926F927F92A4
S11318708F929F92AF92BF92CF92DF92EF92FF929C
S11318800F931F93CF93DF93CDB7DEB7CA1BDB0B48
S11318900FB6F894DEBF0FBECDBF09942A883988ED
S11318A048885F846E847D848C849B84AA84B984F4
S11318B0C884DF80EE80FD800C811B81AA81B98100
S11318C0CE0FD11D0FB6F894DEBF0FBECDBFED0114
S10918D00895F894FFCF17
S11318D601920109017365747570002078203D201A
S11318E625732067090079203D20257320670900A8
S10F18F6207A203D2025732067090000A3
S9030000FC
